S00D0000534F4E41522E7372656394
S113000071C0000086C0000084C0000082C00000EF
S113001080C000007EC000007CC000007AC00000E8
S113002078C0000076C0000074C0000072C00000F8
S113003070C000006EC000006CC000006AC0000008
S113004068C0000066C0000064C0000062C0000018
S113005060C000005EC000005CC000005AC0000028
S113006058C0000056C0000054C0000052C0000038
S113007050C000004EC000004CC000004AC0000048
S113008048C0000046C0000044C00000EEC00000AC
S113009040C000003EC000003CC000003AC0000068
S11300A038C0000009C1000034C0000032C00000A4
S11300B030C000002EC000002CC000002AC0000088
S11300C028C0000026C0000024C0000022C0000098
S11300D020C000001EC000001CC000001AC00000A8
S11300E018C0000011241FBECFEFD1E2DEBFCDBF88
S11300F000E00CBF12E0A0E0B2E0E2EDF4E000E0CA
S11301000BBF02C007900D92A631B107D9F7A9D051
S1130110DEC176CF179888230CF4179A169886FDBB
S1130120169A159885FD159A149884FD149A1398B7
S113013083FD139A129882FD129A119881FD119AE7
S1130140109880FD109A299A85E08A95F1F70000AD
S1130150299885E08A95F1F700000895289A29984E
S1130160D9CF08950F931F93CF93DF931F921F92BC
S1130170CDB7DEB78C011A821982E981FA81E80FC2
S1130180F91F80818823C1F0E981FA81E00FF11F12
S11301908081E4DF89819A8101969A8389838FE340
S11301A091E00197F1F700C00000E981FA81E00FC6
S11301B0F11F80818111E8CF0F900F90DF91CF91D3
S11301C01F910F91089528982998A4CF08952FEF8F
S11301D081EE94E0215080409040E1F700C000009F
S11301E080E3F1DF8FE39CE90197F1F700C00000A1
S11301F080E3E9DF8FE193E00197F1F700C00000AD
S113020080E3E1DF8FE193E00197F1F700C00000A4
S113021080E3D9DF8FE391E00197F1F700C000009C
S113022088E0D1DF8FE391E00197F1F700C000008F
S113023081E0C9DF8FE79EE30197F1F700C000007A
S113024086E0C1DF8FE391E00197F1F700C0000081
S11302508CE0B9DF8FE391E00197F1F700C0000073
S1130260089598D0B4DFD6D0FECF1F920F920FB668
S11302700F9211240BB60F922F933F934F935F93DA
S11302806F937F938F939F93AF93BF93EF93FF935A
S1130290FED0FF91EF91BF91AF919F918F917F918C
S11302A06F915F914F913F912F910F900BBE0F90E3
S11302B00FBE0F901F9018951F920F920FB60F92BA
S11302C011240BB60F920F931F932F933F934F93C9
S11302D05F936F937F938F939F93AF93BF93EF93AA
S11302E0FF93CF93DF93CDB7DEB76597DEBFCDBF66
S11302F0E1EAF0E080818083E6EAF0E000811181A8
S1130300118210821092A5001092A400809188009E
S11303109091890089E0E0E0F2E0DE01119601901D
S11303200D928A95E1F7CE0101961CDF9801AFE9A1
S1130330B6E4BED0803C924180F48CE0E9E0F2E087
S1130340DE011A9601900D928A95E1F780EC3BDF6D
S1130350CE010A9607DF80E836DF65960FB6F8947B
S1130360DEBF0FBECDBFDF91CF91FF91EF91BF9163
S1130370AF919F918F917F916F915F914F913F9139
S11303802F911F910F910F900BBE0F900FBE0F90E6
S11303901F901895E0E8F0E0808180688083E1E8B0
S11303A0F0E0808182618083259A80E29EE49093CC
S11303B0870080938600E0E9F0E08081826080839A
S11303C0E1E9F0E080818B618083E1E7F0E0808106
S11303D08160808380E593EC9093970080939600EE
S11303E0E1EAF0E0808180648083E2E7F0E08081EC
S11303F080628083EAE0F1E0808182608083E4E6C9
S1130400F0E0808187688083E5E6F0E080818760A2
S113041080830895E8E8F0E08EE591E0918380839D
S1130420808191818136994098F48FEF90E722E0A2
S1130430815090402040E1F700C00000808191810C
S11304400A9691838083808191818136994068F3F3
S1130450E8E8F0E080E699E09183808380819181EF
S11304608E35914098F08FEF90E722E081509040D4
S11304702040E1F700C00000808191810A979183B8
S11304808083808191818E35914068F70895E1EAF7
S1130490F0E0808182608083EBE0F1E08081826023
S11304A0808385E38A95F1F7000080818083089535
S11304B0A29FB001B39FC001A39F700D811D1124A1
S11304C0911DB29F700D811D1124911D0895F89402
S10504D0FFCF58
S11304D2416E67756C6F3A200044697374616E6390
S10904E269613A200000EC
S9030000FC
