S00D0000534F4E41522E7372656394
S113000071C000003BC100008CC000008AC0000029
S113001088C0000086C0000084C0000082C00000C8
S113002080C000007EC000007CC000007AC00000D8
S113003078C0000076C0000074C0000072C00000E8
S113004070C000006EC000006CC000006AC00000F8
S113005068C0000066C0000064C00000F8C0000072
S113006060C000005EC000005CC000005AC0000018
S113007058C0000056C0000054C0000052C0000028
S113008050C000004EC000004CC00000B9C00000C9
S113009048C0000046C0000044C0000042C0000048
S11300A040C000003EC000003CC000003AC0000058
S11300B038C0000036C0000034C0000032C0000068
S11300C030C000002EC000002CC000002AC0000078
S11300D028C0000026C0000024C0000022C0000088
S11300E020C0000011241FBECFEFD1E2DEBFCDBF80
S11300F000E00CBF12E0A0E0B2E0E8E1F9E000E0CB
S11301000BBF02C007900D92A634B107D9F722E0C5
S1130110A6E4B2E001C01D92AA34B207E1F702D00E
S1130120F9C36ECF6AD122D17894C8E8D0E00F2EFB
S1130130FEE5EF2EFF24F394F02D00E619E0F9829A
S1130140E882888199818136994048F580914602F8
S113015090914702892B51F48FE798E321E0815075
S113016090402040E1F700C000000FC06881798111
S1130170809148029091490289D1109247021092CD
S1130180460210924902109248028881998105968C
S1130190998388838881998181369940B8F219833B
S11301A00883888199818E35914048F28091460276
S11301B090914702892B51F48FE798E321E0815015
S11301C090402040E1F700C000000FC068817981B1
S11301D0809148029091490259D11092470210929D
S11301E0460210924902109248028881998105972B
S11301F099838883888199818E359140B8F69FCF01
S11302001F920F920FB60F9211240BB60F922F93D9
S11302103F934F935F936F937F938F939F93AF938A
S1130220BF93EF93FF93FFD1FF91EF91BF91AF91F4
S11302309F918F917F916F915F914F913F912F91FA
S11302400F900BBE0F900FBE0F901F9018951F922A
S11302500F920FB60F9211248F939F9380914802AF
S113026090914902019690934902809348029F918C
S11302708F910F900FBE0F901F9018951F920F92A1
S11302800FB60F9211248F939F93489B04C085B59A
S1130290816085BD09C085B58E7F85BD81E090E014
S11302A090934702809346029F918F910F900FBEC7
S11302B00F901F901895179888230CF4179A169886
S11302C086FD169A159885FD159A149884FD149A3E
S11302D0139883FD139A129882FD129A119881FD46
S11302E0119A109880FD109A299A85E08A95F1F761
S11302F00000299885E08A95F1F700000895289A6E
S11303002998D9CF08950F931F93CF93DF931F920A
S11303101F92CDB7DEB78C011A821982E981FA8166
S1130320E80FF91F80818823B1F0E981FA81E00F99
S1130330F11F8081E4DF89819A8101969A83898300
S113034085ED8A95F1F70000E981FA81E00FF11F4C
S113035080818111EACF0F900F90DF91CF911F918F
S11303600F91089528982998A6CF08958FEF81B901
S113037084B1836084B92FEF83EF91E021508040F2
S11303809040E1F700C0000080E3ECDF8FE79EE3DC
S11303900197F1F700C0000080E3E4DF8FE891E00B
S11303A00197F1F700C0000080E3DCDF8FE891E003
S11303B00197F1F700C0000088E3D4DF95ED9A952A
S11303C0F1F7000088E0CEDF25ED2A95F1F7000073
S11303D081E0C8DF8FE39FE10197F1F700C00000DF
S11303E086E0C0DF95ED9A95F1F700008CE0BADF66
S11303F025ED2A95F1F70000089584B5836084BD46
S113040085B5886085BDEEE6F0E0808181608083FB
S113041080E587BDE0E8F0E0808180688083E1E8E2
S1130420F0E0808182618083259A80E29EE490934B
S1130430870080938600E0E9F0E080818260808319
S1130440E1E9F0E080818B618083E1E7F0E0808185
S11304508160808388EA91E6909397008093960068
S1130460E9E6F0E0808181608083E89AE4E6F0E0E8
S1130470808187688083E5E6F0E0808187608083FF
S1130480EAE0F1E08081826080830895CF92DF9278
S1130490EF92FF920F931F93CF93DF93CDB7DEB705
S11304A0E6970FB6F894DEBF0FBECDBF7B01AC015B
S11304B0440F551F440F551F480F591F9A01A5EEAD
S11304C0B9E2DBD1481B590B569547958C01040FB3
S11304D0151F16950795129502950F7001271F7029
S11304E0012789E0E0E0F2E09E012F5F3F4F6901C0
S11304F0D90101900D928A95E1F7FE013A9687E0C1
S1130500DF011D928A95E9F7B7016E55714080E0CD
S113051090E0C2D028E539E344EB5DE323D190D0E9
S1130520DC01CB014AE0BE016F5E7F4FC0D1BC014C
S1130530C601B2D1D6010D900020E9F7119787E0EA
S1130540E0E3F2E001900D928A95E1F7C601DBDE6B
S113055087E0E0E1F2E0DE01549601900D928A9585
S1130560E1F7FE017B9689E0DF011D928A95E9F7A8
S113057088E0E0E2F2E0DE01949601900D928A9523
S1130580E1F7FE01BC9688E0DF011D928A95E9F748
S113059080ECE8DE0035110530F57E01B4E1EB0EA8
S11305A0F11CF70101900020E9F7319780E290E215
S11305B09183808312824AE0BE016C5C7F4FC80144
S11305C076D1BC01C70168D1D7010D900020E9F7AD
S11305D0119786E0E7E3F2E001900D928A95E1F746
S11305E0C70191DE0FC0CE018496DC010D9000207E
S11305F0E9F7119728E0EDE3F2E001900D922A95D6
S1130600E1F781DE82E0AEDEE6960FB6F894DEBF57
S11306100FBECDBFDF91CF911F910F91FF90EF904F
S1130620DF90CF900895EBE0F1E0808182608083D9
S113063085E38A95F1F7000080818D7F808308959A
S113064070D088F09F5790F0B92F9927B751A0F038
S1130650D1F0660F771F881F991F1AF0BA95C9F752
S113066012C0B13081F077D0B1E0089574C0672F23
S1130670782F8827B85F39F0B93FCCF38695779502
S11306806795B395D9F73EF49095809570956195EB
S11306907F4F8F4F9F4F0895E89409C097FB3EF416
S11306A090958095709561957F4F8F4F9F4F9923BB
S11306B0A9F0F92F96E9BB279395F6958795779539
S11306C06795B795F111F8CFFAF4BB0F11F460FFF9
S11306D01BC06F5F7F4F8F4F9F4F16C0882311F051
S11306E096E911C0772321F09EE8872F762F05C065
S11306F0662371F096E8862F70E060E02AF09A9500
S1130700660F771F881FDAF7880F9695879597F9F4
S1130710089557FD9058440F551F59F05F3F71F0ED
S11307204795880F97FB991F61F09F3F79F0879554
S11307300895121613061406551FF2CF4695F1DFDD
S113074008C0161617061806991FF1CF869571056D
S1130750610508940895E894BB2766277727CB01A1
S113076097F908950BD078C069D028F06ED018F0AE
S1130770952309F05AC05FC01124EECFCADFA0F35D
S1130780959FD1F3950F50E0551F629FF001729F22
S1130790BB27F00DB11D639FAA27F00DB11DAA1F41
S11307A0649F6627B00DA11D661F829F2227B00D8E
S11307B0A11D621F739FB00DA11D621F839FA00D19
S11307C0611D221F749F3327A00D611D231F849F69
S11307D0600D211D822F762F6A2F11249F575040C0
S11307E08AF0E1F088234AF0EE0FFF1FBB1F661F5B
S11307F0771F881F91505040A9F79E3F510570F014
S113080014C0AACF5F3FECF3983EDCF3869577954E
S11308106795B795F795E7959F5FC1F7FE2B880F0E
S1130820911D9695879597F9089597F99F6780E8A4
S113083070E060E008959FEF80EC089500240A942E
S11308401616170618060906089500240A941216A7
S11308501306140605060895092E0394000C11F4DA
S1130860882352F0BB0F40F4BF2B11F460FF04C087
S11308706F5F7F4F8F4F9F4F0895A29FB001B39F2B
S1130880C001A39F700D811D1124911DB29F700D95
S1130890811D1124911D0895FB01DC010D900020A0
S11308A0E9F7119701900D920020E1F70895BB2715
S11308B04A3031F4992322F4BDE2909581959F4FFB
S11308C001C0BB27FB015527AA27880F991FAA1F20
S11308D0A41710F0A41B83955051B9F7A05DAA3357
S11308E008F0A95DA193009779F7B111B193119222
S11308F0CB0100C0DC01FC01672F71917723E1F784
S1130900329704C07C916D9370836291AE17BF07D8
S10B0910C8F30895F894FFCF29
S1130918416E67756C6F2020000000000000000025
S1130928446973742E2000000000000000000000D9
S113093844446973742E2000000000000000000085
S11309482064656720200020636D2020003E203845
S10909583020636D000075
S9030000FC
